:100000000C943E000C945B000C945B000C945B0021
:100010000C945B000C945B000C945B000C945B00F4
:100020000C945B000C945B000C945B000C945B00E4
:100030000C945B000C945B000C945B000C9421020C
:100040000C945B000C945B000C945B000C945B00C4
:100050000C9463010C9423010C945B000C945B00E2
:100060000C945B000C945B000C9447050C945B00B3
:100070000C94D0010C9490010C945B0011241FBED1
:10008000CFEFD8E0DEBFCDBF11E0A0E0B1E0E4EA01
:10009000FBE002C005900D92AA33B107D9F715E035
:1000A000AAE3B1E001C01D92AB36B107E1F70E94AF
:1000B00059020C94D0050C940000482F20E0222314
:1000C00039F0892F82958F70E62FEF70E82704C0F2
:1000D000E92FE627E295EF709295907F842F829525
:1000E0008F70982B4295407FF0E0DF01A85EBE4FF5
:1000F0008C919827E85DFE4F808148272F5F223042
:10010000F1F6392F20E0240F311DC9010895FC01BB
:10011000118281818083E450FF4F10820895FC0199
:1001200090818181981718F02081818103C02081FE
:1001300081812650281B822F0895FC0190818181A6
:10014000981718F02081818103C020818181265079
:10015000281B8AEF821B0895DC019C9111968C91DB
:100160001197981728F09C9111968C91119705C0C2
:100170009C9111968C9111979650981B983F39F449
:100180008C91FD01E80FF11D80EC82831AC09C91D7
:1001900011968C911197981728F09C9111968C913B
:1001A000119705C09C9111968C9111979650981BB0
:1001B000993FB9F08C91FD01E80FF11D6283603C1D
:1001C00031F4FD01E450FF4F80818F5F80838C917B
:1001D0008F5F8C938C918A3F10F080E001C08C91EE
:1001E0008C930895DC019C9111968C91119798172E
:1001F00028F09C9111968C91119705C09C911196B5
:100200008C9111979650981B11F490EC1AC011968E
:100210008C911197FD01E80FF11D928111968C913F
:1002200011978F5F11968C93119711968C9111975E
:100230008A3F10F080E003C011968C9111971196BF
:100240008C93892F08951F920F920FB60F9211244D
:100250002F933F934F935F936F937F938F939F93CE
:10026000AF93BF93EF93FF939091770180917801C3
:10027000981728F0909177018091780105C09091AE
:100280007701809178019650981B39F087E791E0CB
:100290000E94F2008093C60005C08091C1008F7D4E
:1002A0008093C100FF91EF91BF91AF919F918F918A
:1002B0007F916F915F914F913F912F910F900FBE62
:1002C0000F901F9018951F920F920FB60F92112446
:1002D0002F933F934F935F936F937F938F939F934E
:1002E000AF93BF93EF93FF938091C0006091C600DE
:1002F0008C7109F060EC81E793E00E94AC00FF9103
:10030000EF91BF91AF919F918F917F916F915F918D
:100310004F913F912F910F900FBE0F901F90189506
:100320001F920F920FB60F9211242F933F934F936A
:100330005F936F937F938F939F93AF93BF93EF934D
:10034000FF939091740280917502981728F0909114
:1003500074028091750205C09091740280917502BB
:100360009650981B39F084E792E00E94F200809347
:10037000CE0005C08091C9008F7D8093C900FF9198
:10038000EF91BF91AF919F918F917F916F915F910D
:100390004F913F912F910F900FBE0F901F90189586
:1003A0001F920F920FB60F9211242F933F934F93EA
:1003B0005F936F937F938F939F93AF93BF93EF93CD
:1003C000FF938091C8006091CE008C7109F060ECC1
:1003D0008EE694E00E94AC00FF91EF91BF91AF9147
:1003E0009F918F917F916F915F914F913F912F914D
:1003F0000F900FBE0F901F9018958AE290E0909397
:10040000C5008093C40036E03093C20028E92093F1
:10041000C1009093CD008093CC003093CA0020930C
:10042000C90008951092800083E0809381001092AB
:100430008200EFE6F0E08081816080831092750198
:1004400008951F920F920FB60F9211248F939F93CE
:10045000809184009091850086539C409093850004
:1004600080938400809175018F5F809375018091E6
:100470007501893138F01092750180913A018068D8
:1004800080933A019F918F910F900FBE0F901F9014
:1004900018953A9888B1887F88B980E880BF109213
:1004A0007A0008951F93182F0E941605812F1F911F
:1004B00008952F923F924F925F926F927F928F9208
:1004C0009F92AF92BF92CF92DF92EF92FF920F93E3
:1004D0001F93DF93CF93CDB7DEB7E7970FB6F894AE
:1004E000DEBF0FBECDBF0E9449020E94FD01F99BF5
:1004F00002C0F999FECF81E090E00E94C805880F04
:100500000E94E10419821A820E94120278941092C9
:100510003A016BE0E62EF12CEC0EFD1E5DEF952E00
:100520004DE0A42EB12CAC0EBD1E31E0C32ED12C5B
:1005300028E2822E1E010894211C311C97E0692EAE
:10054000712C6C0E7D1E83E0482E512C4C0E5D1ECE
:1005500080913A0187FF17C080913A018F7780938D
:100560003A01809176018F5F8093760180917601C8
:10057000803248F0F89480913A01816080933A018A
:100580001092760178940E94EA04882309F082C1CF
:1005900080913C0180FF7AC181FF4EC10E942305FA
:1005A000682FC7010E94260580913C0182FD69C128
:1005B0008B85863009F4FAC0873050F4813009F415
:1005C000C6C0813008F4FAC0853009F05AC110C0A5
:1005D0008A3009F41EC18B3020F4893009F051C1F2
:1005E00053C08C3009F420C18E3009F04AC186C056
:1005F000A0E0B1E001E711E0B5018D919C91119768
:100600009FAB8EAB40E050E0F801808190E0042E7B
:1006100002C0959587950A94E2F780FF25C0FB01FB
:10062000808190E0042E02C0959587950A94E2F7A8
:1006300080FF0DC0EEA9FFA92081C601042E02C0D3
:10064000880F991F0A94E2F7282B20830DC0EEA98A
:10065000FFA92081C601042E02C0880F991F0A94A9
:10066000E2F78095822380834F5F5F4F48305105CA
:1006700059F612960F5F1F4F6F5F7F4FF1E0A83062
:10068000BF0709F0BACFFDC080E191E09DAB8CAB14
:10069000E1E7F1E0B501ACA9BDA90D911C91108273
:1006A00040E050E0DB018C9190E0042E02C0959573
:1006B00087950A94E2F780FF10C0D8018C91D6018B
:1006C000042E02C0AA0FBB1F0A94E2F79D018A2BD9
:1006D000D8018C938081822B80834F5F5F4F48309D
:1006E000510501F78CA99DA902969DAB8CAB319663
:1006F0006F5F7F4F8851914071F6C3C0E8E6F1E02B
:10070000D50110828C91682F70E040E050E0CB0161
:10071000042E02C0959587950A94E2F780FF0BC0DE
:10072000C601042E02C0880F991F0A94E2F79C01AB
:100730008081822B80834F5F5F4F4830510539F7AE
:100740003196119691E0EC36F907D9F69AC09D855D
:1007500090936D019230A8F4F894999DF0011124C2
:10076000EF58FC4F90818181981718F0208181818A
:1007700003C0208181812650281B2093700178942A
:1007800004C01092700110926D0180917001893245
:1007900010F080927001809170018B8782E08093CD
:1007A0006C0180936E01C70161E069C08B818B870A
:1007B0008C818C878D818D878E8132C08C85815014
:1007C000809370018A3218F0A9E2A09370018D85A0
:1007D00080936D01823008F054C013E00EC0809108
:1007E0006D01899DC0011124F701E10FF11D8958A8
:1007F0009E4F60810E94AC001F5F809170011817AE
:1008000070F380916D01F101E80FF11D81E08083AB
:1008100038C08F818B8788858C8789858D878A856D
:100820008E87C70164E02BC080913A018B8787B126
:100830008C87C70162E023C080916C01823009F58A
:1008400010926C0180916E018230D9F48091700118
:100850008823B9F010E00EC080916D01899DC00120
:1008600011248F589C4F0E94F200F701E10FF11DF7
:1008700080831F5F60917001161770F3C7010E949B
:10088000F8040E94EA04882329F402C00E94F504B7
:100890000E94160548E051E0D30120E030E0FA0163
:1008A00080819181FC019081F901E859FE4F80819E
:1008B0009823F201E20FF31F90838C91891731F096
:1008C0009C9380913A01816080933A012F5F3F4F62
:1008D0004E5F5F4F11962430310509F789818823D7
:1008E000C9F09091710380917203981768F406C063
:1008F00080913A01826080933A010CC0909171031B
:1009000080917203965004C090917103809172039C
:10091000981B71F78A818823B9F090916E048091B9
:100920006F04981728F090916E0480916F0405C0B1
:1009300090916E0480916F049650981B29F08091DD
:100940003A01826080933A0180913A0190E083708D
:100950009070892B31F03A9A80913A018C7F809384
:100960003A019091770180917801981728F0909141
:1009700077018091780105C090917701809178018D
:100980009650981B29F08091C10080628093C1002D
:100990009091740280917502981728F090917402DA
:1009A0008091750205C090917402809175029650F5
:1009B000981B09F4CDCD8091C90080628093C90055
:1009C000C7CD8093BA008FEF8093BB0084E0809303
:1009D000BC0008958091BC00817008958091BC0096
:1009E00080FDFCCF809138010895809138010895F1
:1009F000482F292F8091BC0080FDFCCF60933D01E2
:100A0000AEE3B1E0842F922F9C01F90102C08191E5
:100A10008D938E2F841B8617D0F310923C0188EFA4
:100A20008093380185EC8093BC0008958091BC00D0
:100A300080FDFCCF10923C0188EF8093380185EC5B
:100A40008093BC000895809167010895AC01809166
:100A5000BC0080FDFCCF80913C0180FF14C020E0F1
:100A600030E00AC0FA01E20FF31FD901A25CBE4FC9
:100A70008C9180832F5F3F4F2617A0F380913C011C
:100A80008D7F80933C0180913C01817008951F927D
:100A90000F920FB60F9211248F939F93EF93FF93B2
:100AA0008091B900803909F449C0813948F4803710
:100AB000C1F1803809F442C0803609F059C036C00F
:100AC000883A61F0893A20F4803A09F051C054C064
:100AD000883B39F0803C09F04BC017C01092670189
:100AE0003A9880916701893218F088E28093670113
:100AF00090916701E92FF0E0E25CFE4F80818093E6
:100B0000BB009F5F9093670131C090916701809116
:100B10003D01981769F580913C01816080933C010B
:100B20002BC080913C01846080933C0180913C010A
:100B3000826080933C011092670118C08091670128
:100B4000893218F088E28093670180916701909163
:100B5000BB00E82FF0E0E25CFE4F90838F5F809354
:100B6000670180913C01816080933C0185EC05C068
:100B70008091B9008093380184E08093BC00FF919C
:100B8000EF919F918F910F900FBE0F901F9018952E
:100B9000F999FECF92BD81BDF89A992780B5089545
:040BA000F894FFCFF7
:100BA4002200250028002B00200023002600290015
:100BB4002100240027002A0000A0E04060C080201B
:100BC400C0602080A00040E0000103020706040585
:0A0BD4000E0F0D0C09080A0BF800C3
:00000001FF
